:020000040000FA
:030000000200E318
:03001300020630B2
:03001B0002065D7D
:03004B00020607A3
:03006B0002043656
:03007B0002050C6F
:100083000205E200000080FB120113B90003020025
:10009300CDE4900F00783779028002F0A3D8FCD921
:1000A300FA901036AA82AB83900116783F790180CB
:1000B30015E493A3AC82AD838A828B83F0A3AA82D7
:1000C300AB838C828D83D8E9D9E775829D75830BC9
:1000D30074001200F575828675830074001200F5B2
:1000E30075D0007581BF75100075110F759F0002E3
:1000F300008BC09FF59FE473D09F22D083D082C032
:100103009FE493C0E0740193C0E0740293F59F22CF
:1001130079012253797374656D2072756E0D0A002F
:100123009C015401D801C60148616C526653657441
:100133004D6163206F6B0D0A00F54F4B0D0A0045AF
:1001430052524F520D0A00232323230041414141C0
:10015300001200FEFF0C001200FE490B001200FE0D
:100163008A06001200FE2E07001200FEA3070012EB
:1001730000FEB607001200FEFC07001200FEAC08EA
:10018300001200FED908001200FEF008001200FE63
:100193007609001200FEC109001200FE710C001264
:1001A30000FE800C001200FEB30B001200FEF30BE6
:1001B300001200FEF90B001200FE020C001200FEFA
:1001C300080C001200FE960A001200FEB30A001289
:1001D30000FEBE0A001200FEE70A001200FE020B38
:1001E300001200FE0D0B001200FE360B001200FE83
:1001F300DD09001200FE1C0A001200FE630A001251
:1002030000FE760A001200FE1B0C001200FEB90C61
:1002130000CAC0E0E6F0A308DAFAD0E0FA22CAC0C6
:10022300E0E0A3C582CCC582C583CDC583F0A3C559
:1002330082CCC582C583CDC583DAE6D0E0CA22600D
:100243000D08C6A2E713C618C613C6D5E0F322707D
:100253000422600D18C6C333C608C633C6D5E0F4FE
:100263001822251010AF08F510400215118008F56B
:100273001040021511D2AF22C0D0251010AF08F5DF
:1002830010500205118008F51050020511D2AFD0AD
:10029300D0222510F58210AF08F510400215118009
:1002A30008F51040021511D2AF851183222510F5F0
:1002B30082E43511F58322E4732510C582C0E0E59D
:1002C3001134FFC583C0E0E510C3958224F810AF55
:1002D300088583118582108008858311858210D259
:1002E300AFCEF0A3E520F0A37808E608F0A3DEFA8A
:1002F300EFF0A3E58124FAF8E608F0A3E608F0A3FB
:10030300E608F0A30808E608F0A3E608F0A31581C1
:100313001581D0E0FED0E0F8158115811581E8C084
:10032300E0EEC0E022851183851082E0A3FEE0A306
:10033300F5207808E0A3F608DFFAE0A3FFE0A3C006
:10034300E0E0A3C0E0E0A3C0E0E0A3C0E0E0A3C01E
:10035300E010AF088582108583118008858210859F
:100363008311D2AFD083D0820200FBC0D02510C549
:1003730082C0E0E51134FFC583C0E0E510C3958278
:1003830024F310AF088583118582108008858311BB
:10039300858210D2AFC8F0A3E9F0A3EAF0A3EBF093
:1003A300A37908E709F0A3D8FAECF0A3EDF0A3EEE4
:1003B300F0A3EFF0A3D0E0F0A3D0E0F0A3D0E0F0FF
:1003C300A3E520F0A3E5F0F0A32285118385108235
:1003D300E0C0E0A3E0F9A3E0FAA3E0FBA37808E020
:1003E300F608A3DFFAE0FCA3E0FDA3E0FEA3E0FF31
:1003F300A3E0C0E0A3E0C0E0A3E0F5D0A3E0F520D4
:10040300A3E0A3F5F010AF0885831185821080085F
:10041300858311858210D2AFD082D083D0E0F8D00B
:10042300E03274028000C0E0F404120295D0E012BE
:10043300021422C0E074EF12036E7A0A7B001201E9
:10044300A27E007F000204F4858908750900750AFD
:1004530001750B00EE780A120252E508550AFAE517
:1004630009550BFB750801750900EE780812025255
:10047300E5086A7003E5096B706F7508017509007B
:10048300EE7808120252E508F45289EEF8EFF9E823
:1004930075F002A4C8AAF075F000A42AFA75F00258
:1004A300E9A42AF9740028F582740F39F583E0F87A
:1004B300A3E0F9E8496032EEFAEFFBEEF8EFF9E872
:1004C30075F002A4C8ACF075F000A42CFC75F00222
:1004D300E9A42CF9740028F582740F39F583E0F848
:1004E300A3E0F58388821202BAEE2401FEEF340002
:1004F300FFC3EE9407EF9400A2D265D033500302FA
:10050300044BC2C57F040203CDC0E074EF12036E37
:100513007A0A7B001201A27E007F000205CA858A47
:1005230008750900750A01750B00EE780A1202526C
:10053300E508550AFAE509550BFB7508017509002D
:10054300EE7808120252E5086A7003E5096B706FD2
:10055300750801750900EE7808120252E508F45295
:100563008AEEF8EFF9E875F002A4C8AAF075F00076
:10057300A42AFA75F002E9A42AF9741028F5827402
:100583000F39F583E0F8A3E0F9E8496032EEFAEFBA
:10059300FBEEF8EFF9E875F002A4C8ACF075F000D3
:1005A300A42CFC75F002E9A42CF9741028F58274CC
:1005B3000F39F583E0F8A3E0F58388821202BAEEDF
:1005C3002401FEEF3400FFC3EE9407EF9400A2D2A0
:1005D30065D0335003020521C2EB7F040203CDC073
:1005E300E074F212036EC2AFE5E9A2E6500912010C
:1005F30078759B0053E9BF75E1EC75E1E3D2AF7FFA
:10060300010203CDC0E074F212036E53AFFE900FEC
:10061300ADE0F8A3E0F9E849600E900FADE0F8A370
:10062300E0F58388821202BA7F010203CDC0E07431
:10063300F212036E7900C28BE5C1F9900FAFE0FAB5
:10064300A3E0FBEA4B600E900FAFE0F8A3E0F58365
:1006530088821202BA7F010203CDC0E074F2120352
:100663006E7900C28FE5F9F9900FB1E0FAA3E0FBD0
:10067300EA4B600E900FB1E0F8A3E0F58388821295
:1006830002BA7F010203CDC082C083C2AF906189E9
:10069300E0D2E6F09061FA7409F09061B27415F05B
:1006A3009061AE7400F09061A3E0D2E6F0439A014A
:1006B300900FA0E090618FF0900FA1E0906173F034
:1006C300900FA2E0906172F0900FA3E090616AF046
:1006D300900FA4E090616BF0900FA5E090616CF037
:1006E300900FA6E090616DF0900FA7E090616EF01F
:1006F300900FA8E090616FF0900FA9E0906170F007
:10070300900FAAE0906171F090617474EEF09061C3
:100713007574EEF090105CE0906190F075E1EC750B
:10072300E1E3D2AFD083D0820200FB74F61202BCA5
:10073300EAFEEBFF740C6C700374006D60067AFFC5
:100743007BFF80578E828F83E0900FA0F08E828F85
:1007530083A3E0900FA1F08E828F83A3A3E0900F79
:10076300A2F07508087509007808120425EE240321
:10077300FCEF3400FD7AA37B0F12020E7402120207
:100783007BEE240BF582EF3400F583E090105CF0F0
:100793007A4B7B101201D27A007B007F020203287E
:1007A300C082C083900FABEAF0A3EBF0D083D0827A
:1007B3000200FB74F61202BC75E1EC75E1E3906193
:1007C30093E0542270F875E1EE5391FD78008013A5
:1007D3008808750900EA2508F582EB3509F583E0F9
:1007E300F5D908E8C39940E875E1E9E591A2E1503C
:1007F300FA7591FD7F0202032874F61202BC74801D
:100803001202657A007800900F20C082C0838510A1
:1008130082851183AC82AD83D083D082748012022F
:10082300219061A3E0C2E6F0539AFED2AFE5D9FA74
:10083300EA851082851183F07801801FE5D9C0E035
:100843008808750900851082851183E5822508F5DE
:1008530082E5833509F583D0E0F008EAC39850DCDC
:10086300900FABE0F8A3E0F9E84960278A0875091F
:1008730000E5082401FCE5093400FD85108285119B
:1008830083AA82AB83900FABE0F8A3E0F583888261
:100893001202BAC2AF9061A3E0D2E6F0439A0174A8
:1008A3008012027B7F0202032874F61202BC12013B
:1008B300668A088B09A808A909E50849700C120182
:1008C300607A5D7B101201E480077A627B1012016B
:1008D300E47F02020328C082C083ECF91201727A1A
:1008E3005D7B101201E4D083D0820200FB74F4120A
:1008F30002BCEAFEEBFF8C088D09750A04750B0038
:10090300780A1204257C6A7D10EEFAEFFB120208C6
:10091300740212027B8A0A8B0BE50A450B7015E5FC
:100923000824FCFCE50934FFFDEE2404FAEF34004F
:10093300FB12017E750A04750B00780A1204257CEC
:100943006F7D10EEFAEFFB120208740212027B8A2B
:100953000A8B0BE50A450B7015E50824FCFCE50939
:1009630034FFFDEE2404FAEF3400FB1201847F040C
:1009730002032874F41202BC8A0A8B0BECFEEDFF0F
:10098300750800750900750800750900801DE50AE2
:100993002508F582E50B3509F583E0F91201DEE55B
:1009A300082401F508E5093400F509C3E5089EE5C7
:1009B300099FA2D265D03340D57F04020328C082A9
:1009C300C0831202027A907B0112016C7A8A7B0146
:1009D3001201FCD083D0820200FB74F71202BCE93F
:1009E300FE900FB5E070031201AE900FB5E0C39413
:1009F3008050211201B4EEC0E0900FB5E0F8790009
:100A030074B628F582740F39F583D0E0F0900FB5F2
:100A1300E02401F07F01020328C082C083900FB558
:100A2300E0D2E7F01201BA900FB3E0F8A3E0F9E8DF
:100A3300496020900FB5E0F879002480FCE934FF89
:100A4300FD7AB67B0F900FB3E0F8A3E0F5838882BD
:100A53001202BA900FB57400F0D083D0820200FB6B
:100A6300C082C083900FB3EAF0A3EBF0D083D082AF
:100A73000200FBC082C0837A057B001201A87AF6CC
:100A83007B011201C07AF07B011201EAD083D0828C
:100A93000200FB53F1FE43F30C53FF3F43868043B5
:100AA300C50B43C2D8C2E943864043A8840200FB76
:100AB30089C1A2E950FCC2E90200FB74F71202BC2F
:100AC300EAFEEBFF80128E828F83E0F91201CC8E57
:100AD300828F83A3AE82AF838E828F83E070E77FA2
:100AE3000102032853F1FD43F33053FF3FD2FF4389
:100AF300FC0B43FAD8C2EAD2FE43A8880200FB8962
:100B0300F9A2EA50FCC2EA0200FB74F71202BCEA43
:100B1300FEEBFF80128E828F83E0F91201DE8E825C
:100B23008F83A3AE82AF838E828F83E070E77F01D2
:100B3300020328C082C083900FB1EAF0A3EBF0D088
:100B430083D0820200FB74F71202BC7E007F008018
:100B530036EEF8EFF9E875F002A4C8AAF075F000D4
:100B6300A42AFA75F002E9A42AF9744328F58274D9
:100B73001039F583E0F8A3E0F58388821202BAEE18
:100B83002401FEEF3400FFC3EE9404EF9400A2D2DD
:100B930065D03340BC7F0102032812015A1201962B
:100BA3007A367B101201D27AD07B071201A280F031
:100BB300C008C009C2AFEA75F07DA4CAA8F075F0F9
:100BC30000A428F875F07DEBA428FBEAF5DA8A087F
:100BD3008B0974087808120242E508F5DB43E50443
:100BE300D2B9D2DED2AF75E40CD009D0080200FB33
:100BF30043E4020200FB75E30075E2000200FB53CD
:100C0300E4FD0200FBC082C083900FADEAF0A3EBCA
:100C1300F0D083D0820200FB74F71202BC74091275
:100C230002B0E0F8A3E08015A3AA82AB838C828D87
:100C330083A3AC82AD83E824FF18E934FFF9E849C4
:100C430060238A828B83E0FE8C828D83E06E8A82AE
:100C53008B8360D4E0F88C828D83E0FAE8C39AFA40
:100C630095E0FB80047A007B007F0102032853C6D2
:100C7300BFE59EA2E640FA53C6B80200FB7C007DA6
:100C830000801EE82401F8E93400F9C3E8942EE952
:100C93009404A2D265D03340EAEC2401FCED340085
:100CA300FDC3EC9AED9BA2D265D033500678007950
:100CB3000080D80200FB74F61202BC740A1202B060
:100CC300E0FEA3E0FFEAF8EBF980188C828D83E065
:100CD30088828983F0A3A882A9838C828D83A3ACA5
:100CE30082AD838E088F09E50824FF1EE50934FFD2
:100CF300FFE508450970D47F0202032843F34053FC
:0B0D0300FDBF43F24075B6B60200FBD6
:04000005000000E314
:00000001FF
